:100000008031192800002030850009308400000864
:10001000031918280130F800F701F70B0D28F80B29
:100020000C284A30F700F70B13281628800B0A28F3
:1000300008006A302100990023008C018D01220004
:10004000920191019401930121001E109E141E1132
:100050001F3023008C00FE308D0021001E129E12E6
:100060001E139E171D1404302000A800FA30A900AA
:100070000320A80B362841306600EF3066002200CE
:100080000D120030F80021001D08833978049D000E
:100090000330F700F70B4A284D289D141130F70064
:1000A0009D1C5428F70B50281C08FA001B08200040
:1000B000A0007A08A100A201A301A308031D6E28D5
:1000C000A208031D6E28A108031D6E282008503CBD
:1000D000031C6E28A301A201A101A0010C30A900FC
:1000E00003200430F80021001D08833978049D00A6
:1000F0000330F700F70B7A287D289D141130F700A4
:100100009D1C8428F70B80281C08FA001B0820007F
:10011000A4007A08A500A601A701A708031D9E2830
:10012000A608031D9E28A508031D9E282408503CF0
:10013000031C9E28A701A601A501A4010C30A9005B
:100140000320EF3066000D18DF28A408031DB12836
:10015000A508031DB128A608031DB128A708031987
:10016000C228FF30A407031CA507031CA607031C15
:10017000A7070C30A9000320EF30660022000D1203
:100180002000A528A008031DCE28A108031DCE2805
:10019000A208031DCE28A3080319DF28FF30A007FB
:1001A000031CA107031CA207031CA3070C30A90012
:1001B0000320EF30660022000D162000C2283D28E3
:0201C0006300DA
:020000040001F9
:04000E00A43FFF1EEE
:00000001FF
;PIC16F1827
;CRC=6BA6  CREATED="14-jan-20 13:58"
